:020000022000DC
:106000000000042079630200616302006363020000
:10601000656302006763020069630200000000001C
:106020000000000000000000000000006B630200A0
:106030006D630200000000006F63020071630200E4
:10604000C1FD020073630200D1FD02007363020010
:10605000736302007363020025F60200736302009B
:1060600073630200736302007363020073630200D0
:1060700073630200736302007363020073630200C0
:10608000736302006D7202007363020073630200A7
:10609000AD72020073630200B975030073630200FE
:1060A0007363020073630200736302007363020090
:1060B0007363020073630200000000000000000030
:1060C0007363020073630200736302007363020070
:1060D00073630200736302007363020055370300A9
:1060E0007363020073630200736302000000000028
:1060F00000000000736302000000000073630200F0
:10610000000000000000000000000000000000008F
:10611000000000000000000000000000000000007F
:10612000000000000000000000000000000000006F
:10613000000000000000000000000000000000005F
:10614000000000000000000000000000000000004F
:10615000000000000000000000000000000000003F
:10616000000000000000000000000000000000002F
:10617000000000000000000000000000000000001F
:10618000000000000000000000000000000000000F
:1061900000000000000000000000000000000000FF
:1061A00000000000000000000000000000000000EF
:1061B00000000000000000000000000000000000DF
:1061C00000000000000000000000000000000000CF
:1061D00000000000000000000000000000000000BF
:1061E00000000000000000000000000000000000AF
:1061F000000000000000000000000000000000009F
:10620000364937480A1A02D0072291438D4635494C
:1062100035480A1A06D00722914381F309880222E1
:1062200082F3148831483249324A00F045F8324846
:106230003249334A00F040F832483349334A00F0DB
:106240003BF833483349344A00F036F83348344990
:10625000344A00F031F834483449354A00F02CF81B
:1062600034483549354A00F027F835483549002289
:1062700000F02DF834483549002200F028F8344861
:106280003449091A082903DB002202600430016046
:10629000314A90471F482049884205D0026804309F
:1062A00003B4904703BCF7E700208646EC46002085
:1062B00000212A4A9047FEE7884207D0521A05D0AB
:1062C000037801300B700131013AF9D170478842EF
:1062D00002D002700130FAE770470000000004208D
:1062E00000E00320000004200000042004BB0300A1
:1062F000A02B0020402C0020D8630200D8630200AD
:10630000208C030004BB0300A02B0020A02B002046
:10631000748D0300748D0300748D0300748D03006D
:10632000748D0300748D0300748D0300748D03005D
:1063300004BB0300A4BB0300402C0020402C002021
:10634000402C00206C3E00206C3E00206C3E002063
:106350006C3E00206C5E0020A1630200B15D030072
:10636000FEE7FEE7FEE7FEE7FEE7FEE7FEE7FEE705
:10637000FEE7FEE7704700BF1048804710484FF027
:106380000701884385460F4880470F48016841F45C
:1063900070010160BFF34F8FBFF36F8FFFF730BF06
:1063A0000A480B490B4A884207D0521A05D0037895
:1063B00001300B700131013AF9D170477563020069
:1063C00000000420795E030088ED00E05C8D03008E
:0863D000882B0020A02B002007
:1063D80084B001900B468DF8033013468DF80230D7
:1063E80000230393019B002B3CD19DF80230012B25
:1063F8000BD19DF80330012B04D1019BDBB20E3386
:10640800DBB200E000238DF802309DF80330012B49
:1064180004D0022B0CD0002B15D01FE01449019A90
:1064280013465B0013440B449DF802201A701BE0CE
:106438000F49019A13465B0013440B4401339DF83E
:1064480002201A7010E00A49019A13465B001344AF
:106458000B4402339DF802201A7005E007230393CA
:1064680000BF01E007230393039B184604B070475D
:10647800402C002000B587B00390029101920F4B89
:106488001B68002B03D10E492F2006F069F9019BE8
:1064980004331B6804AA0B49184611F0EBFB049B54
:1064A800DBB20E338DF81730044B1B689DF81720AC
:1064B8001046984700BF07B05DF804FB442C002045
:1064C800748D0300CC8D030000B587B00390029152
:1064D80001920E4B1B68002B03D10D49392006F0A1
:1064E8003FF9019B04331B6804AA0A49184611F0B6
:1064F800C1FB049B8DF81730044B1B689DF81720CF
:106508001046984700BF07B05DF804FB442C0020F4
:10651800748D0300CC8D030000B583B001220021E7
:106528000020FFF755FF0190019B002B04D0019B31
:10653800072B01D0019B1CE0072202210120FFF755
:1065480047FF0190019B002B04D0019B072B01D032
:10655800019B0EE0042202210020FFF739FF019081
:10656800019B002B04D0019B072B01D0019B00E06D
:106578000023184603B05DF804FB00B583B0012280
:1065880002210020FFF724FF0190019B002B04D07B
:10659800019B072B01D0019B1CE00722022101204F
:1065A800FFF716FF0190019B002B04D0019B072BDE
:1065B80001D0019B0EE00A2200210020FFF708FF0E
:1065C8000190019B002B04D0019B072B01D0019B5C
:1065D80000E00023184603B05DF804FB00B585B061
:1065E80001900091019B1B88102B02D0112B18D011
:1065F8002FE01A4B1B68002B0DD1FFF78DFF03907E
:10660800039B002B07D0164B1B68002B03D0144BA1
:106618001B6803989847114B1B6801330F4A136096
:1066280017E00E4B1B68013B0C4A13600B4B1B68B1
:10663800002B0DD1FFF7A1FF0390039B002B07D080
:10664800074B1B68002B03D0054B1B680398984722
:1066580000BF00BF05B05DF804FB00BF4C2C002054
:10666800482C002086B003900291019201238DF8F6
:1066780017309DF817301F4A039B13601D4A029B71
:1066880053601C4A019B9360039B44F201029342AE
:1066980012D044F20202934221D1019B154AD360E1
:1066A800144BDB681B881A46124B9A61114BDB6846
:1066B8005B68104AD36112E0019B0E4A13610D4BCF
:1066C8001B699B680B4A53610A4B1B691B68094A83
:1066D8009361084B1B695B68064AD36100BF72B6B9
:1066E80000BF9DF81730DBB2002BFAD162B600BFAD
:1066F80006B07047502C002000B583B0029000917E
:10670800019244F2010071466A4600F003F803B0B2
:1067180000BD00BF30B58BB007900691059272B6E8
:106728000EF052FF00BF0EF011FD0346002BFAD108
:10673800079B41F2010293421BD041F201029342AE
:1067480002D8012B09D05FE044F2010293422ED017
:1067580044F20202934218D056E0394A394BD31A10
:10676800DB081B0443F00103374918460EF07CFC94
:1067780057E0334A334BD31ADB081B0443F00103B9
:10678800324918460EF070FC4BE0059B09932C4AE1
:106798002C4BD31ADB081B0443F00100099B5B68F0
:1067A8001A46099B1B882A490EF07DFC39E0059B97
:1067B8000893234A234BD31ADB081B0443F0010434
:1067C800089B9D68089B9B68184607F0A7FD034631
:1067D8001846089B5B681946089B1B68069A029234
:1067E8000193009103462A461A4920460EF085FC7B
:1067F800134A144BD31ADB081B0443F00103164950
:1068080018460EF031FC0CE00D4A0E4BD31ADB088B
:106818001B0443F00103069A104918460EF032FC97
:1068280000BF0F4B1B6803F00103002B00D000BE14
:10683800059A06990798FFF715FF00BF0BB030BD02
:10684800E48C0300B48C03004C8E03006C8E0300B0
:10685800908E0300AC8E0300D48E0300E88E0300F4
:10686800F0ED00E082B003468DF807309DF8073060
:1068780003F01F0205499DF907305B09012000FA62
:1068880002F241F8232000BF02B0704700E100E0A7
:1068980082B003468DF807309DF8073003F01F02D9
:1068A80006499DF907305B09012000FA02F22033FE
:1068B80041F8232000BF02B0704700BF00E100E0AC
:1068C80082B003468DF807309DF8073003F01F02A9
:1068D80006499DF907305B09012000FA02F24033AE
:1068E80041F8232000BF02B0704700BF00E100E07C
:1068F80082B003468DF807309DF8073003F01F0279
:1069080006499DF907305B09012000FA02F260335D
:1069180041F8232000BF02B0704700BF00E100E04B
:1069280082B0034600918DF807309DF90730002B9F
:106938000CDA009BDAB20C499DF8073003F00F031C
:10694800043B5201D2B20B441A7609E0009BDAB23A
:1069580006499DF907305201D2B20B4483F800234F
:1069680000BF02B0704700BF00ED00E000E100E0AA
:1069780000B585B00190019B002B0AD0074B43F06E
:1069880001030393019B9B010293039B0298984781
:1069980000E000BF05B05DF804FB00BF008F0300F6
:1069A80000B583B00190064A019BC2F8083506215C
:1069B8001120FFF7B5FF00BF03B05DF804FB00BF6F
:1069C8000010014008B50D4B4FF48032C3F8442342
:1069D8000A4B4FF48032C3F804231120FFF788FFD5
:1069E8001120FFF73FFF054B01221A602F20FFF708
:1069F800BFFF034B01221A7000BF08BD0010014001
:106A08008E2D002008B51120FFF742FF0E4B4FF4E2
:106A18008032C3F848230C4B4FF48032C3F8082364
:106A2800094B01225A602F20FFF7A2FF064B0122D3
:106A38009A60064B00221A602F20FFF799FF044B3B
:106A480000221A7000BF08BD00100140802D0020F0
:106A58008E2D0020024BD3F804351846704700BF2E
:106A68000010014082B001900091019A009BD31A56
:106A780023F07F43184602B07047000082B00190AF
:106A8800034A019BC2F8403500BF02B0704700BFFF
:106A98000010014086B00190284B1B68002B03D1E1
:106AA800264A019B136045E0019B1A68234B1B682B
:106AB8001B689A4210D8214B1B681968019B1A68F9
:106AC8001E4B1B688A1A1A601C4B1A68019BDA61F4
:106AD8001A4A019B13602DE0019B1B680393174B17
:106AE8001B680593154B1B68049309E0049B1B68FE
:106AF800039AD31A0393049B0593049BDB690493BD
:106B0800049B002B04D0049B1B68039A9A42EDD87F
:106B1800049B002B05D0049B1A68039BD21A049B84
:106B28001A60019B039A1A60019B049ADA61059B1B
:106B3800019ADA6100BF06B0704700BF7C2D0020C3
:106B480000B587B001902A4B1B680393284B1B683C
:106B58000593059B049308E0049A019B9A4208D088
:106B6800049B0593049BDB690493049B002BF3D1DE
:106B780000E000BF049B002B01D1002333E0059AFD
:106B8800049B9A4214D11A4B1B68DB69184A13609C
:106B9800174B1B68002B0BD1164B01229A60164B22
:106BA80000221A60154B01221A702F20FFF7E0FE11
:106BB800049B1B680293049BDA69059BDA61059BB9
:106BC800DB690493049B002B05D0049B1A68029B85
:106BD8001A44049B1A60064B1B68039A9A4214BF16
:106BE80001230023DBB2184607B05DF804FB00BFA1
:106BF8007C2D002000100140802D00208F2D0020CA
:106C080008B51120FFF75CFE00BF08BD08B51420C9
:106C1800FFF756FE00BF08BD00B583B00190019B89
:106C28005B69019A92691046984700BF03B05DF806
:106C380004FB000000B585B02B4B1B68002B4ED021
:106C480000230193FFF706FF0246284B1B681946ED
:106C58001046FFF707FF0290234B1B6803931DE0C4
:106C6800039B1B68029A9A421CD3039B1B68029AD7
:106C7800D31A0293039B1B68019A13440193039B45
:106C88000093039BDB690393009B1B7C002B05D0BF
:106C9800009B00221A740098FFF7BEFF039B002B8D
:106CA800DED100E000BF124B1A78124B1B789A42D3
:106CB8000CD1104B1B780133DAB20E4B1A700D4B06
:106CC8001B78022B02D10B4B00221A70094B1B7840
:106CD8001946094A019B42F82130FFF797FF00BF88
:106CE80005B05DF804FB00BF7C2D0020802D00203E
:106CF8008C2D00208D2D0020842D002082B0019045
:106D0800184B1A78184B1B789A4223D0154B1B78CE
:106D18000133DAB2134B1A70124B1B78022B02D1D3
:106D2800104B00221A700F4B1B781A460F4B53F862
:106D38002220019B1A60019B1A680D4B1B681344A3
:106D48000B4A13600A4B1B6823F07F43084A136001
:106D5800012303E0019B00221A600023184602B0B9
:106D6800704700BF8C2D00208D2D0020842D002021
:106D7800802D002088B00390029101920023079390
:106D880038E0204B1B680693069B1B68039A9A42BF
:106D980006D2069B1A68039BD21A069B1A602DE03E
:106DA800069B1B68039AD31A0393069B1B68079AD2
:106DB80013440793069B00221A60124B1B68059325
:106DC800069BDB690F4A1360069BDB68002B11D01A
:106DD800029A079B134423F07F42069B5A60069B46
:106DE800DA68069B9A60019B1A68069BDA61019B28
:106DF800059A1A60034B1B68002BC2D100BF08B06C
:106E0800704700BF7C2D002000B589B00190002399
:106E18008DF81F30664B1B680593AAE0019B002B79
:106E280005D0019B0693069BDB69019361E0614BEA
:106E38001B781A4613465B001344DB005D4A134473
:106E4800043304935B4B1B780133DAB2594B1A7045
:106E5800584B1A78574B9B789A4202D1554B0022CF
:106E68001A70049B5B680693049B1B78022B04D062
:106E7800032B1BD0012B1FD01DE0049B5B68184619
:106E8800FFF75EFE0346002B02D001238DF81F306A
:106E9800069B00221A746CE0454B1B680393039B06
:106EA80000221A74039BDB69414A1360404B1B683C
:106EB800002BF1D15DE05CE000BF069B1B7C002B42
:106EC80000D056E0049B9A68069B5A60049BDA68D7
:106ED800069B9A60049B1A69069BDA60049B5A69B0
:106EE800069B9A61344B1B78002B02D0069B00222C
:106EF8005A60069B5A68314B1B68D31A23F07F43AC
:106F08002F4A93420ED8069B5A682C4B1B68194689
:106F18001046FFF7A7FD0246069B9B681A44069B8E
:106F28001A6017E0254B1A68069B5B6819461046DD
:106F3800FFF798FD0290069B9B68029A9A4206D238
:106F4800069B9A68029BD21A069B1A6002E0069B6F
:106F580000221A60069B00225A60069B00229A6053
:106F6800069B01221A74069B0022DA610698FFF735
:106F780091FD019B002B7FF451AF0E4B1A780D4BFE
:106F88005B789A427FF44AAF9DF81F30002B04D1FA
:106F9800074B1B68059A9A4201D0012300E00023A1
:106FA80003F00103DBB2184609B05DF804FB00BF2B
:106FB8007C2D0020702C00208F2D0020802D00209B
:106FC800FEFF7F0010B588B00190274B1B68002B8F
:106FD80044D0254B1B681B680793FFF73BFD0690C1
:106FE800224B1B68059305990698FFF73BFD03465E
:106FF800033304931E4B1B7883F00103DBB2002B91
:1070080001D0FFF7DFFC049A079B934238BF134671
:10701800059A13440593059B23F07F430593059830
:10702800FFF72CFDFFF716FD039006990398FFF76D
:1070380019FD0346DC1C06990598FFF713FD034666
:107048009C420DD9FFF706FD03461846FFF716FDCB
:107058002F20FFF78DFCFFF7D3FD01E0FFF7D2FCEF
:1070680000BF08B010BD00BF7C2D0020802D00207F
:107078008E2D002000B587B00023019300238DF8E2
:107088001730194B1B680493184B1B6803936B4606
:107098001846FFF733FE03468DF80B309DF80B308A
:1070A800002B08D0009B01AA04991846FFF762FE3E
:1070B80001238DF81730019B1846FFF7A5FE0346FC
:1070C800002B02D001238DF817309DF81730002BC4
:1070D80002D00398FFF776FF054B00221A7000BF15
:1070E80007B05DF804FB00BF802D00207C2D002038
:1070F8008F2D002082B003468DF80730034A9DF893
:107108000730537000BF02B0704700BF702C0020DA
:1071180084B00190144B5B7801338DF80F30124B1B
:107128009B789DF80F209A4202D100238DF80F30EA
:107138000D4B1B789DF80F209A4201D100230FE0D8
:10714800019B9DF80F201A70074B5B781A4613466F
:107158005B001344DB00044A134404330293029B8C
:10716800184604B0704700BF702C002000B589B0E5
:1071780003900291019200930023079300238DF856
:1071880016300DF11603184604F04EFA0DF11703E8
:107198001846FFF7BDFF0690069B002B02D104237B
:1071A800079318E0069B01221A70069B039A5A60FF
:1071B800FFF750FC0246069B9A60069B029ADA602B
:1071C800069B019A1A61069B009A5A619DF817302E
:1071D8001846FFF78FFF9DF81630184604F03AFA64
:1071E800079B002B01D1FFF711FD079B184609B03B
:1071F8005DF804FB00B587B001900B468DF80330AD
:107208000023059300238DF80E300DF10E03184668
:1072180004F00AFA0DF10F031846FFF779FF0490FE
:10722800049B002B02D1042305930BE0049B9DF8DB
:1072380003201A70049B019A5A609DF80F30184673
:10724800FFF758FF9DF80E30184604F003FA059B27
:10725800002B01D1FFF7DAFC059B184607B05DF853
:1072680004FB000008B50E4B0022C3F840210C4B6C
:107278000022C3F844210A4B0022C3F84821084BD6
:107288000022C3F84C21064B0022C3F80021044B0E
:107298000022C3F80421FFF7CDFC00BF08BD00BFE2
:1072A8000010014008B5FFF7E5FE00BF08BD00006B
:1072B80008B5FFF7A7FB134B00221A70114B0022E9
:1072C8005A70104B0B229A700F4B00221A600F4B0A
:1072D80000221A700E4B00221A701420FFF708FBC8
:1072E80006211420FFF71CFB1420FFF7BBFA00202F
:1072F800FFF756FBFFF7AEFB0246064B1A6000236A
:10730800184608BD702C00207C2D00208C2D0020F4
:107318008D2D0020802D002000B587B003900291AC
:107328000192039B0593144B9B78002B01D10823F2
:107338001EE0039B002B01D1082319E0029B042BBC
:1073480001D8072314E0059B5B69002B01D10823B2
:107358000EE0059B5B7C012B01D1029B00E0002322
:107368000493019B049A02990598FFF7FFFE0346D0
:10737800184607B05DF804FB702C002000B585B0F6
:107388000190019B03930D4B9B78002B01D108239F
:1073980010E0019B002B03D0039B5B69002B01D1FC
:1073A800082307E0039B00221A7402210398FFF7C1
:1073B80021FF0346184605B05DF804FB702C002039
:1073C800024BD3F88034DBB2184670470070024095
:1073D800024BD3F88434DBB2184670470070024081
:1073E80008B50CF099FB0023184608BD00B585B018
:1073F80003468DF807300B468DF8063013468DF896
:1074080005309DF8073003F01F029DF806305B0138
:1074180003F060031A439DF80530DB01DBB2134328
:107428000393039BFF2B04D905494FF4AC7005F077
:1074380097F9039BDBB2184605B05DF804FB00BF63
:10744800088F030082B00190019B1B7A184602B096
:107458007047000000B585B001900B468DF80330E9
:10746800019B002B04D10F494FF4887005F078F97F
:107478000198FFF7E7FF03461A469DF80330934249
:1074880001D3002309E0019B093303939DF80320EE
:1074980013465B001344039A1344184605B05DF87D
:1074A80004FB00BF6C8F030082B00190019B1B7826
:1074B800184602B0704782B00190019B5B7818466D
:1074C80002B0704700B585B001900B468DF80330C7
:1074D800019B002B04D10D4940F2431005F040F9FF
:1074E800019B5B789DF803209A4201D3002309E0B1
:1074F800019B9B781A46019B134403939DF8033024
:10750800039A1344184605B05DF804FB6C8F03001A
:1075180082B00190019B1B78184602B0704782B078
:107528000190019B1B68184602B0704700B583B0F4
:107538000190019B002B04D1064940F2432005F03D
:107548000FF90198FFF7EBFF03461B68184603B0D5
:107558005DF804FBD08F030000B583B00190019B58
:10756800002B04D1064940F25F2005F0F9F8019894
:10757800FFF7D5FF03465B68184603B05DF804FBC8
:10758800D08F030000B583B00190019B002B04D17C
:10759800064940F27B2005F0E3F80198FFF7BFFFAA
:1075A80003465B68184603B05DF804FBD08F030000
:1075B800014B1846704700BFC89203004FF0804344
:1075C800D3F838341846704708B5FFF7F7FF034675
:1075D80003F00103002B14BF01230023DBB218467C
:1075E80008BD08B5FFF7EAFF034603F00203002BC6
:1075F80014BF01230023DBB2184608BD00B583B0D1
:1076080001900091019B002B04D1114940F20F1009
:1076180005F0A6F8019B5B68002B04D10C494FF4D8
:10762800887005F09DF8019B5B681B68002B04D1EE
:10763800074940F2111005F093F8019B5B681B683D
:107648000099019898470346184603B05DF804FB73
:107658003890030000B583B001900091019B002B86
:1076680004D1114940F2191005F07AF8019B1B6802
:10767800002B04D10C494FF48D7005F071F8019B73
:107688001B689B68002B04D1074940F21B1005F0CA
:1076980067F8019B1B689B68009A528810469847B8
:1076A80000BF03B05DF804FB3890030000B583B059
:1076B80001900B468DF80330074B1B68002B06D052
:1076C800054B1B689DF8032011460198984700BF99
:1076D80003B05DF804FB00BF502F002000B583B055
:1076E80003468DF80730074B5B68002B05D0054B28
:1076F8005B689DF807201046984700BF03B05DF807
:1077080004FB00BF502F002010B58EB003900193EA
:107718000B468DF80B3013468DF80A300023099379
:1077280000230D9302E00D9B01330D93039B5B68CF
:107738005C6809A8012300220399A0470346002B8F
:10774800F1D100238DF8233000230C9300238DF80A
:107758002F30002306934FE0039B5B685C680DF1B4
:10776800230206A801230399A047039B5B685C6872
:107778000DF1170206A801230399A0479DF81730B9
:107788009DF80B209A4227D19DF82F209DF80A30AA
:107798009A421CD19DF823301A46109B1A60019B0F
:1077A8005A1C01929DF823201A70019B5A1C0192C1
:1077B8009DF80B201A70039B5B685C689DF823306A
:1077C800023B06A8019A0399A047002319E09DF8F7
:1077D8002F3001338DF82F30039B5B685C689DF870
:1077E8002330023B06A800220399A0479DF82330C6
:1077F8001A460C9B13440C930C9A0D9B9A42ABD3DC
:10780800052318460EB010BD00B585B003468DF8A7
:1078180007309DF90730002B14DA9DF8073003F084
:107828000F038DF80E309DF80E30082B04D911493E
:107838004FF4CC7004F094FF9DF80E30DB000E4A34
:10784800134413E09DF8073003F00F038DF80F3051
:107858009DF80F30082B04D906494FF4CF7004F077
:107868007FFF9DF80F30DB00044A1344184605B02B
:107878005DF804FB38900300B02E0020F82E00209D
:1078880000B583B003468DF807309DF807301846D9
:10789800FFF7BAFF03461B68184603B05DF804FB00
:1078A80000B585B0034600918DF807309DF8073084
:1078B8001846FFF7A9FF0390039B009A1A60009BE4
:1078C800002B10D19DF80730002B03D09DF807300E
:1078D800802B04D108494FF4E17004F041FF039B69
:1078E80000225A6004E0009B5B681A68039B5A6098
:1078F80000BF05B05DF804FB3890030000B583B005
:107908000190064B5B68054A126801991046984732
:107918000346184603B05DF804FB00BFF82E0020AC
:1079280000B58BB00190019B0993099B1B78052B2F
:107938001AD1FFF74DFD03468DF82330FFF740FDC0
:1079480003468DF81B30002200210020FFF74EFD72
:1079580003461A469DF81B30934205D19DF8233003
:10796800052B01D13A4B0993099B1B78002B2ED18B
:1079780000F04EFF079007E009990798FFF76AFEA5
:107988000798FFF7FFFD0790079B002BF4D1002312
:107998008DF80B300DF10B03184603F045FE2D4B07
:1079A8001B68002B03D1099B5A882B4B1A80012195
:1079B800284805F094F89DF80B30184603F04AFE65
:1079C80001210998FFF772FE224B1B683CE0234A0D
:1079D80003AB1946104604F082FF0590059B002B67
:1079E80032D0059A099B1B68136000238DF80A3072
:1079F8000DF10A03184603F017FE174B1A88154BAA
:107A08001B689BB2D31A9BB201339AB2059BDA80EA
:107A18000021104805F004F803469AB2059B9A80A5
:107A28009DF80A30184603F015FE0C4A03AB1946B8
:107A3800104604F06DFF03468DF813309DF813309F
:107A480019460998FFF732FE0BB05DF804FB00BF3A
:107A5800A0900300A82E0020AC2E0020982E002015
:107A680000B583B003468DF807309DF80730012B29
:107A780007D0022B09D0002B0BD10A48FFF750FF83
:107A88000CE00948FFF74CFF08E00848FFF748FFFB
:107A980004E0074940F2622004F062FE00BF03B030
:107AA8005DF804FB94900300989003009C900300F9
:107AB8003890030000B583B001900198FFF730FFBC
:107AC80000BF03B05DF804FB00B583B003468DF832
:107AD80007309DF80730002B04D0064940F27B2080
:107AE80004F03EFE0448FFF71BFF00BF03B05DF83B
:107AF80004FB00BF38900300A490030082B0034643
:107B08008DF807309DF80730082B27D801A252F8C6
:107B180023F000BF417B0200457B0200497B020045
:107B28004D7B0200517B0200557B0200597B02000D
:107B38005D7B0200617B0200002310E000230EE061
:107B480001230CE000230AE0002308E0012306E0FB
:107B5800012304E0012302E0012300E0002318468A
:107B680002B0704782B003468DF807309DF80730A1
:107B7800082B27D801A252F823F000BFA97B0200E6
:107B8800AD7B0200B17B0200B57B0200B97B02002D
:107B9800BD7B0200C17B0200C57B0200C97B0200DD
:107BA800002310E000230EE001230CE000230AE08C
:107BB800002308E0002306E0002304E0002302E09D
:107BC800012300E00023184602B07047014B1B78E0
:107BD800184670474C2F002010B582B003468DF828
:107BE80007309DF807301846FFF788FF03461C4604
:107BF8001C4B1B781846FFF781FF03469C420DD0AB
:107C08009DF807301846FFF779FF0346002B03D08D
:107C1800154806F045FD01E006F0A0FD9DF8073087
:107C28001846FFF79FFF03461C460E4B1B78184665
:107C3800FFF798FF03469C420CD09DF80730184682
:107C4800FFF790FF0346002B02D00CF09BF901E0F0
:107C58000CF08EF9034A9DF80730137000BF02B08C
:107C680010BD00BF4C2F0020A02B002000B587B00E
:107C780001900B468DF8033013468DF802300198B9
:107C8800FFF7E0FB03461A469DF80330934204D9F8
:107C98001B4940F2F92004F063FD9DF80230002BE7
:107CA80001D0072328E09DF8033019460198FFF713
:107CB800D1FB04900498FFF7FEFB03468DF80F30C4
:107CC80000238DF8173010E09DF8173019460498F6
:107CD800FFF7F8FB0290029B1B78184600F060FD46
:107CE8009DF8173001338DF817309DF817209DF84F
:107CF8000F309A42E8D30023184607B05DF804FB1A
:107D08003890030000B587B001900B468DF803301A
:107D18000198FFF797FB03461A469DF803309342F4
:107D280004D918494FF4467004F01AFD9DF8033041
:107D380019460198FFF78EFB04900498FFF7BBFBE8
:107D480003468DF80F3000238DF8173010E09DF8AA
:107D5800173019460498FFF7B5FB0290029B1B7871
:107D6800184600F03BFD9DF8173001338DF81730A9
:107D78009DF817209DF80F309A42E8D300BF07B04E
:107D88005DF804FB3890030000B589B0019006F057
:107D980079FB0346002B04D1484940F2313004F006
:107DA800DFFC474808234FF48472464904F064FD19
:107DB8000690069B002B01D003237BE042480BF082
:107DC80027FE0690069B002B01D0069B72E03F4BD6
:107DD80000221A703E4B00221A603E4B00221A60A5
:107DE800482200213C480FF091FF482200213B48DF
:107DF8000FF08CFF019B002B09D1394B00221A6030
:107E0800374B00225A60364B00221A7204E0344B7A
:107E1800019A07CA83E80700002006F00BFE0690C7
:107E2800069B002B08D0069B852B05D0234A40F2E1
:107E38005F310698FEF760FCFFF7BAFB0590002358
:107E48008DF81F3018E000238DF81E3007E00398E6
:107E5800FFF75EFB034605991846FFF721FD9DF8DD
:107E68001E305A1C8DF81E2019460498FFF72AFB6D
:107E78000390039B002BEAD19DF81F305A1C8DF804
:107E88001F2019460598FFF7E5FA0490049B002B7C
:107E9800D9D10B238DF8083002AB19460598FFF7A6
:107EA800ADFB0690069B002B03D0FFF799FA069BC3
:107EB80000E00023184609B05DF804FB3890030081
:107EC800982E0020902D0020BD7A02004C2F002013
:107ED800402F0020442F0020B02E0020F82E002034
:107EE800502F002000B583B00BF098FF034683F0B5
:107EF8000103DBB2002B04D10BF09CFF0346002BDF
:107F080001D008230FE00A4806F0FAFD0190019B12
:107F18000093009B002B05D0064A40F2C23100981E
:107F2800FEF7EAFB0023184603B05DF804FB00BF28
:107F3800A89003003890030008B50BF005FE00BFB9
:107F480008BD000008B50BF081FF034683F001036C
:107F5800DBB2002B04D1044940F2D13004F000FC1C
:107F68000BF0E0FE00BF08BD3890030008B50BF029
:107F780061FF0346002B0DD10D494FF4767004F0D4
:107F8800EFFB07E0FFF720FB034683F00103DBB2BA
:107F9800002B0BD1FFF725FB034683F00103DBB26F
:107FA800002BEFD10348FFF7BBFC00E000BF08BD82
:107FB80038900300AC90030000B583B082238DF89D
:107FC800043001AB1846FFF7ABFC00BF03B05DF807
:107FD80004FB000000B587B00190E24B1B68002B42
:107FE80004D1E14940F2254004F0BAFB03F069FBF3
:107FF8000346052B04D8DC4940F22C4004F0B0FBC2
:10800800019B1B78852B00F2678201A252F823F0AE
:108018002B8302008983020017840200AB830200CD
:10802800DB8302003F8402004F840200E1840200E7
:10803800B7840200C5840200D3840200E1840200F0
:10804800E1840200E1840200E1840200318402003C
:10805800E1840200E1840200E1840200E18402007C
:10806800E1840200E1840200E1840200E18402006C
:10807800E1840200E1840200E1840200E18402005C
:10808800E1840200E1840200E1840200E18402004C
:10809800E1840200E1840200E1840200E18402003C
:1080A800E1840200E1840200E1840200E18402002C
:1080B800E1840200E1840200E1840200E18402001C
:1080C800E1840200E1840200E1840200E18402000C
:1080D800E1840200E1840200E1840200E1840200FC
:1080E800E1840200E1840200E1840200E1840200EC
:1080F800E1840200E1840200E1840200E1840200DC
:10810800E1840200E1840200E1840200E1840200CB
:10811800E1840200E1840200E1840200E1840200BB
:10812800E1840200E1840200E1840200E1840200AB
:10813800E1840200E1840200E1840200E18402009B
:10814800E1840200E1840200E1840200E18402008B
:10815800E1840200E1840200E1840200E18402007B
:10816800E1840200E1840200E1840200E18402006B
:10817800E1840200E1840200E1840200E18402005B
:10818800E1840200E1840200E1840200E18402004B
:10819800E1840200E1840200E1840200E18402003B
:1081A800E1840200E1840200E1840200E18402002B
:1081B800E1840200E1840200E1840200E18402001B
:1081C800E1840200E1840200E1840200E18402000B
:1081D800E1840200E1840200E1840200E1840200FB
:1081E800E1840200E1840200E1840200E1840200EB
:1081F800E1840200E1840200E1840200E1840200DB
:10820800E1840200E1840200E1840200E1840200CA
:10821800AF8202003182020075820200DD82020014
:10822800FD820200478402005048FFF767FB4F4871
:1082380000F078FB0D20FFF751FA00F095FC02F0F2
:10824800E4FF4B4B1B68002B03D14A4B1B7A002BD6
:1082580001D0012300E0002303F00103DBB218463C
:108268000BF080FD0120FFF7B7FC42E100F07CFC39
:108278000BF0B0FD0020FFF7AFFC3F4800F052FBC9
:108288003D48FFF73BFB0E20FFF728FAFFF79EFC5F
:1082980003461846FFF732FC0346002B00F0228104
:1082A80006F05CFA1EE1FFF791FC0346062B08D0A6
:1082B800072B0AD0052B00D00BE00220FFF78CFC1F
:1082C80007E00820FFF788FC03E00220FFF784FCA2
:1082D80000BF0EE1FFF77AFC0346032B40F0048150
:1082E8000BF0C8FD0346002B00F0FE800420FFF7CA
:1082F80073FCF9E0FFF76AFC0346032B07D10BF088
:10830800B9FD0346002B02D00420FFF765FC0BF0F3
:10831800E9FD0346002B00F0E9800620FFF75CFC2E
:10832800E4E0FFF753FC0346032B04D0FFF74EFCB1
:108338000346082B02D11148FFF74CFE0020FFF737
:10834800CDF900F05FFA059008E001990598FFF76C
:1083580055F903900598FFF7FFF80590059B002B4A
:10836800F3D1C6E0402F002038900300B0900300FE
:10837800442F0020502F0020B4900300B890030031
:1083880000F0F2FB02F038FF0220FFF725FC012085
:10839800FFF7A4F90198FFF7B1FA019800F0C2FAC3
:1083A800A7E0FFF713FC0346082B05D10220FFF7CF
:1083B80013FC0BF0F1FD02E00520FFF70DFC032094
:1083C800FFF78CF90198FFF799FA019800F0AAFADB
:1083D8008FE00320FFF782F94848FFF78FFA4748F4
:1083E80000F0A0FAFFF7F2FB0346062B02D0082B99
:1083F80004D007E00720FFF7EFFB07E00220FFF7B4
:10840800EBFB03E00220FFF7E7FB72E071E00320DB
:10841800FFF7E2FB0220FFF761F9019800F082FA0A
:108428000198FFF76BFA64E00F20FFF757F90198FE
:1084380000F078FA5DE00198FFF760FA59E00198DA
:10844800FFF75CFA55E0019B9B781846FFF7DCF9CB
:108458000490049B1B68002B04D1294940F2025068
:1084680004F07EF9049B5B68002B04D1244940F298
:10847800035004F075F9049B5B68049A126801992B
:10848800104698470346002B32D0019B9B7803F097
:108498000F03002B2CD0019B9B7803F00F03072BB5
:1084A80026DC019B9B7818460BF0C1FF20E00820D2
:1084B800FFF714F9019800F035FA1AE00920FFF7E0
:1084C8000DF9019800F02EFA13E00A20FFF706F9DB
:1084D800019800F027FA0CE0094940F2265004F010
:1084E8003FF906E000BF04E000BF02E000BF00E083
:1084F80000BF00BF07B05DF804FB00BFBC900300DD
:108508003890030000B583B000230193394B1B68F2
:10851800002B07D1384B3949184604F00DFA0246AA
:10852800344B1A60334B1B68002B32D0314B1B681D
:108538009B88002B1ED02F4B1B68DB88B3F5006F80
:1085480003D32C4B1B680022DA802A4B1B68DA887D
:10855800511C89B2D9801346ADF80630254B1B68EB
:108568009A88013A92B29A8001AB1846FFF732FD19
:1085780001233AE01F4B1B681846FFF72BFD1E4BE3
:108588001E49184604F0F1F91A4B00221A6001231B
:108598002BE01B4B1B68002B26D000238DF80330E3
:1085A8000DF10303184603F03FF8164B1B88B3F58B
:1085B800006F02D3134B00221A80124B1B885A1CDF
:1085C80091B2104A1180ADF8063001210C4804F030
:1085D800B6FA9DF80330184603F03CF801AB18468C
:1085E800FFF7F8FC012300E00023184603B05DF80C
:1085F80004FB00BF5C2F0020982E0020602F002075
:10860800A82E0020AC2E002000B589B00190019B57
:10861800002B04D15A4940F26A5004F0A1F8019B9A
:108628005B68002B04D1564940F26B5004F098F86F
:10863800019B5B681B68002B04D1514940F26C50C8
:1086480004F08EF80198FEF76AFF03461B68002BBA
:1086580004D04B4940F26D5004F082F80BF0EAFB6D
:10866800034683F00103DBB2002B04D00BF0D6FBEA
:108678000346002B04D1424940F2715004F070F8CF
:1086880000238DF81F301CE000238DF81E300BE00E
:108698000398FEF73DFF03461846FFF7F1F8034637
:1086A800002B01D0112367E09DF81E305A1C8DF86D
:1086B8001E2019460598FEF705FF0390039B002B23
:1086C800E6D19DF81F305A1C8DF81F2019460198D5
:1086D800FEF7C0FE0590059B002BD5D100238DF831
:1086E8001F3018E000238DF81D3007E00498FEF7CE
:1086F8000FFF034601991846FFF7D2F89DF81D3081
:108708005A1C8DF81D2019460598FEF7DBFE0490CB
:10871800049B002BEAD19DF81F305A1C8DF81F20AE
:1087280019460198FEF796FE0590059B002BD9D1B6
:10873800144B069310E0069B1B68019A9A4204D1D9
:108748000F4940F2975004F00BF8069B1B68184637
:10875800FEF7E5FE03460693069B1B68002BEAD14D
:10876800069B019A1A600B238DF8083002AB194654
:108778000198FEF743FF0346184609B05DF804FB6D
:1087880038900300402F0020044B1B78002B14BFA7
:1087980001230023DBB21846704700BF4D2F00208D
:1087A80000B583B003468DF807309DF8073003F015
:1087B8000F03072B09DC9DF8073018460BF07FFEE6
:1087C8009DF8073018460BF044FE9DF80730184610
:1087D8000BF056FC00BF03B05DF804FB00B583B096
:1087E80003468DF807309DF8073018460BF0A0FCBB
:1087F80000BF03B05DF804FB014B1B6818467047C7
:10880800402F0020014B1B6818467047442F00205A
:10881800014B1B6818467047482F002000B587B0E9
:10882800034600918DF80730FFF7E6FF059031E029
:108838000598FEF707FE03468DF8123000238DF8E1
:1088480013301DE09DF8133019460598FEF702FE17
:1088580003900398FEF728FE03461A469DF8073052
:10886800934208D1009B002B03D0009B9DF8132056
:108878001A70059B12E09DF8133001338DF8133000
:108888009DF813209DF812309A42DBD30598FEF725
:108898004DFE0590059B002BCAD10023184607B052
:1088A8005DF804FB00B585B003900B4601928DF886
:1088B8000B3001990398FEF7A1FE0346184605B050
:1088C8005DF804FB00B585B0034600918DF80730CC
:1088D8009DF90730002B05DA9DF8073003F00F03E8
:1088E800082B09DD9DF90730002B16DB9DF80730B2
:1088F80003F00F03082B10DC9DF807301846FEF72D
:1089080083FF03461B680393039B002B05D0009944
:108918000398FEF773FE034600E01023184605B0DF
:108928005DF804FB00B585B00190FFF765FF039083
:1089380007E001990398FEF761FE0398FEF7F6FD3C
:108948000390039B002BF4D100BF05B05DF804FB36
:1089580000B585B0019006230293FFF74DFF039001
:108968000BE001990398FEF749FE0290029B062B43
:1089780007D10398FEF7DAFD0390039B002BF0D193
:1089880000E000BF029B184605B05DF804FB00003C
:1089980000B583B0034600918DF807309DF8073085
:1089A80018460BF05AFB034683F00103DBB2002B99
:1089B80001D008230CE0084B1B78022B01D00823B8
:1089C80006E09DF80730009918460BF0D1FB0346E6
:1089D800184603B05DF804FB4C2F002000B583B0A7
:1089E800034600918DF807309DF8073018460BF0C4
:1089F80034FB034683F00103DBB2002B01D00823CC
:108A08000CE0084B1B78022B01D0082306E09DF8E8
:108A18000730009918460BF07FFC0346184603B050
:108A28005DF804FB4C2F002000B585B001900B4683
:108A38008DF8033013468DF8023006230393019B0B
:108A48005B689B68002B09D0019B5B689B689DF85D
:108A580002209DF80310019898470390039B062B6A
:108A680008D19DF802209DF8033019460198FFF7B8
:108A7800FDF80390039B184605B05DF804FB00B5AC
:108A880083B001900B468DF80330019B5B68DB686F
:108A9800002B07D0019B5B68DB689DF8032011461B
:108AA800019898479DF8033019460198FFF72AF96D
:108AB80000BF03B05DF804FB00B585B001900B461C
:108AC8008DF8033000238DF80F30019B5B681B691C
:108AD800002B0AD0019B5B681B699DF80320114697
:108AE8000198984703468DF80F309DF80F301846C7
:108AF80005B05DF804FB000000B585B0FFF77CFE0B
:108B0800039028E00398FEF79DFC03468DF80A3091
:108B180000238DF80B3014E09DF80B300022194625
:108B28000398FFF781FF0190019B002B04D00D49AA
:108B380040F26A7003F014FE9DF80B3001338DF893
:108B48000B309DF80B209DF80A309A42E4D3039825
:108B5800FEF7ECFC0390039B002BD3D100BF05B0BC
:108B68005DF804FB3890030000B583B0FFF744FEBE
:108B780001901EE00198FEF765FC03468DF802306F
:108B880000238DF803300AE09DF803301946019858
:108B9800FFF775FF9DF8033001338DF803309DF81A
:108BA80003209DF802309A42EED30198FEF7BEFCEE
:108BB8000190019B002BDDD100BF03B05DF804FBE1
:108BC80082B003468DF807309DF8073003F01F0385
:108BD800DBB2184602B0704782B003468DF8073002
:108BE8009DF807305B0903F00303DBB2184602B0B7
:108BF800704782B003468DF807309DF80730DB09CF
:108C0800DBB2184602B0704782B00190019B1B7A14
:108C1800184602B07047000000B585B001900B46B9
:108C28008DF80330019B002B04D10F494FF4887055
:108C380003F096FD0198FFF7E7FF03461A469DF8F3
:108C48000330934201D3002309E0019B09330393C6
:108C58009DF8032013465B001344039A13441846F7
:108C680005B05DF804FB00BFFC90030082B00190E2
:108C7800019B1B78184602B0704782B00190019B97
:108C88005B78184602B0704700B585B001900B4676
:108C98008DF80330019B002B04D10D4940F243109D
:108CA80003F05EFD019B5B789DF803209A4201D397
:108CB800002309E0019B9B781A46019B1344039308
:108CC8009DF80330039A1344184605B05DF804FB79
:108CD800FC90030082B00190019B1B78184602B0FB
:108CE800704782B00190019B184602B0704700009F
:108CF80000B583B00190019B002B03D10449522099
:108D080003F02EFD019B184603B05DF804FB00BF7D
:108D18004491030000B583B00190019B002B03D15F
:108D280009495F2003F01CFD019B1B68002B03D140
:108D38000549602003F014FD019B1B680C3318469D
:108D480003B05DF804FB00BF4491030000B585B093
:108D580001900B468DF803300198FFF7C9FF039087
:108D6800039BDB69002B06D0039BDB699DF803207E
:108D780011460198984700BF05B05DF804FB00B59F
:108D880085B0019000210198FFF746FF039000216C
:108D98000398FFF779FF02900298FFF79BFF0346BD
:108DA800184605B05DF804FB00B585B001900121B7
:108DB8000198FFF731FF039000210398FFF764FF44
:108DC80002900298FFF786FF0346184605B05DF843
:108DD80004FB00B585B0019001210198FFF71CFF45
:108DE800039001210398FFF74FFF02900298FFF7C5
:108DF80071FF0346184605B05DF804FB00B589B05D
:108E080003900291029B5B781846FFF7D9FE034650
:108E1800012B28D1029B9B78062B24D10023059394
:108E280004AB184602F06CFA0790029B1979029B72
:108E3800DA7805AB0093079B0398FEF765FC06906C
:108E4800069B052B0FD0059B3F2B03D90849C9204A
:108E580003F086FC029B0133059A0799184602F035
:108E6800DDF9034600E00623184609B05DF804FB67
:108E78004491030082B00190009100BF0623184678
:108E880002B0704700B585B0019000910198FFF7D6
:108E98002FFF03900398FFF73DFF0290009B9B78FC
:108EA800212B02D000BF062310E0009BB3F8073047
:108EB8009BB2072B01D0062308E0009B581C029B9D
:108EC8000C330722194602F0A9F90346184605B0E3
:108ED8005DF804FB00B585B0034600918DF80730B6
:108EE8009DF80730002B01D0032316E0009B039365
:108EF8000398FFF70FFF0290029B1B78202B0BD1E2
:108F0800029B03F10C00029B0233072219460EF064
:108F1800D4FE00BF002300E00623184605B05DF824
:108F280004FB000000B58DB0019000910198FFF797
:108F3800DFFE0A900A98FFF7EDFE0990009B9A78E9
:108F4800099B1A70009BB3F807309BB2DAB2099BF1
:108F58005A70099B02330693099B5B780793002399
:108F6800089300238DF817300DF11703184602F007
:108F78005BFB06AB19460020FFF70AFD0B900B9B25
:108F8800002B09D1094B03930A9B049303AB1946A1
:108F9800002002F097F90B909DF81730184602F060
:108FA80059FB0B9B18460DB05DF804FBDD8E0200E3
:108FB80000B585B001900198FFF79AFE03900398D9
:108FC800FFF7A8FE0290029B00229A82029B0022D1
:108FD8009A61029B00221A62029B0022DA66029BB7
:108FE80000221A67029B00225A67029B00229A6796
:108FF800029B03F12802029B9A6600BF05B05DF848
:1090080004FB00B587B0019000910198FFF770FE4E
:1090180005900598FFF77EFE0490009B9B78202B17
:1090280004D0222B10D000BF06237BE0009BB3F8AE
:1090380007309BB2072B01D0062373E000990198F3
:10904800FFF770FF03466DE0009BB3F807309BB253
:10905800002B01D0062365E0049B9B8A03F00103E3
:10906800002B14BF012300238DF80F30009BB3F8A9
:1090780003309AB2049B9A82049B9B8A03F00103F3
:10908800002B14BF012300238DF80E309DF80F200C
:109098009DF80E309A4201D1002343E09DF80E302E
:1090A800002B01D0022300E003238DF80D309DF83A
:1090B8000D3019460198FFF749FE9DF80E3083F0F0
:1090C8000103DBB2002B2CD00198FFF76DFE03469D
:1090D8008DF80C309DF80C30184609F069FD0198A0
:1090E800FFF777FE03468DF80C309DF80C301846D4
:1090F80009F05EFD049B00229A61049B00221A621B
:10910800049B0022DA66049B00221A67049B002253
:109118005A67049B00229A67049B03F12802049B68
:109128009A660023184607B05DF804FB00B583B0C3
:1091380001900091019B002B04D124494FF4E47065
:1091480003F00EFB009B002B04D1204940F2C9100C
:1091580003F006FB009B5B781846FFF74AFD0346C1
:10916800012B16D1009B5B781846FFF735FD0346A7
:10917800002B02D0012B06D022E000990198FFF7BE
:109188003DFE03461DE000990198FFF77BFE03466C
:1091980017E0009B5B781846FFF71EFD0346002B7F
:1091A80002D0012B06D00BE000990198FFF762FE70
:1091B800034606E000990198FFF723FF034600E005
:1091C8000623184603B05DF804FB00BF4491030072
:1091D80086B00390029101920093029B0593039B32
:1091E800009A5A60059BDB69009A9A421DD8059B34
:1091F8009A69039B1A60059B9A69009B1A44059B10
:109208009A61059B1A6F009B1A44059B1A67059B78
:10921800DA69009BD21A059BDA61059BDB69002B92
:1092280014BF01230023DBB208E0059B03F12802E9
:10923800039B1A60059B009A9A670023184606B09C
:109248007047000000B58BB001900198FFF750FD02
:1092580008900898FFF75EFD07900198FFF7B9FDA1
:1092680003468DF81B306C4B0393079B0493079BB5
:10927800DB69002B26D1079B1A6F079B5A67079B50
:1092880000221A67079B0022DA66079B1B6A002BDD
:1092980013D0079B079A1833203292E8030083E81B
:1092A8000300079B00221A6203AA9DF81B3011468F
:1092B8001846FFF793FB0346A9E0079B00229A6133
:1092C8000023A4E0079B9B6F0593059B0993079BCD
:1092D800DB69059A9A4202D9079BDB690993079BC8
:1092E8009869079B2833099A19460EF0E6FC079BF4
:1092F8001A6F099B1A44079B5A67079B00221A6733
:10930800059A099BD21A079BDA66079B03F1280284
:10931800099B1A44079B9A66079B1B6A002B65D01A
:10932800079B079A1833203292E8030083E803006A
:10933800079B00221A6254E0079BDA6E079BDB69E1
:109348009A4232D3079B9869079B996E079BDB6902
:109358001A460EF0B2FC079BDA6E079BDB69D21A3D
:10936800079BDA66079B9A6E079BDB691A44079B83
:109378009A66079BDA69079B5A6700210198FFF7ED
:10938800E5FC079B1B6A002B0BD0079B079A183339
:10939800203292E8030083E80300079B00221A6248
:1093A8001FE0079B00229A6123E0079B9869079BAF
:1093B800996E079BDB6E1A460EF07FFC079BDA6EF0
:1093C800079B1A67079BDA69079BDB6ED21A079B14
:1093D800DA61079B9A69079BDB6E1A44079B9A61BF
:1093E80007E0079BDB6E002BA6D102E0079B00225B
:1093F8009A61079B9B69002B08D003AA9DF81B3034
:1094080011461846FFF7EAFA034600E0002318461B
:109418000BB05DF804FB00BFD991020000B585B020
:10942800019000910198FFF7AAFC03461A46009B99
:109438009B789A4201D1002331E0009B9B785BB274
:10944800002B10DA009BDB78002B02D0032B06D010
:1094580007E001210198FFF779FC00231FE00023B2
:109468001DE003231BE0009B9B785BB2002B15DB00
:10947800009BDB78012B0DD0032B0BD0002B0BD1DD
:109488000198FFF7DFFE039000210198FFF75EFCCB
:10949800039B04E0002302E0032300E006231846B0
:1094A80005B05DF804FB000000B585B0019000919F
:1094B800019B002B04D1294940F2DD2003F050F92B
:1094C800009B002B04D1254940F2DE2003F048F927
:1094D80000230393009B1B780E2B35D801A252F86A
:1094E80023F000BF57950200299502005795020006
:1094F8005795020051950200319502003D950200F2
:1095080051950200519502004995020051950200BB
:10951800579502005795020057950200579502008B
:109528000198FFF745FD13E000990198FFF7FEFD4C
:1095380003900DE000990198FFF770FF039007E092
:109548000198FFF735FD03E00623039300E000BF11
:10955800039B184605B05DF804FB00BF4491030067
:1095680010B58AB003900291019200930298FFF718
:109578004BFB03461A46CC4B1A700298FFF7B8FB10
:109588000990039B002B04D1C84940F20F3003F027
:10959800E7F8019B059300230693009B0793039B21
:1095A8000893089B1B68B3F5517F00F0F583B3F56A
:1095B800517F00F2978040F22632934200F0658294
:1095C80040F22632934244D840F21632934200F0D9
:1095D800A68140F2163293421CD840F213329342CD
:1095E80000F04681B3F5457F09D2002B00F01681C3
:1095F80040F21232934200F0208100F0E0BEB3F551
:10960800457F00F0568140F21532934200F06C819C
:1096180000F0D5BE40F21932934200F0D28140F2F8
:10962800193293420AD840F21732934200F09281DD
:10963800B3F5467F00F0AA8100F0C1BEB3F5487FBC
:1096480000F0DF8140F22132934200F0F58100F012
:10965800B6BE40F23332934200F0D382B3F54D7F69
:109668001DD2B3F54B7F00F07082B3F54B7F0AD85B
:1096780040F22732934200F02382B3F54A7F00F08C
:109688003F8200F09CBE40F22D32934200F0788277
:1096980040F22E32934200F08F8200F090BEB3F574
:1096A8004F7F00F00683B3F54F7F0AD8B3F54D7F9F
:1096B80000F0C18240F23532934200F0DA8200F0C5
:1096C8007EBE40F24232934200F0328340F2423290
:1096D800934200F2478340F24132934200F00E83F6
:1096E80000F06DBE40F25632934200F0928440F290
:1096F8005632934246D8B3F5537F00F0EA83B3F568
:10970800537F1FD840F24932934200F0938340F2CE
:10971800493293420AD840F24532934200F05683C8
:10972800B3F5527F00F06C8300F049BE40F24A3234
:10973800934200F0998340F24B32934200F0AE839B
:1097480000F03DBE40F25132934200F0148440F2E2
:10975800513293420AD840F24F32934200F0D783F5
:10976800B3F5547F00F0ED8300F029BE40F2523289
:10977800934200F01A8440F25532934200F02F844D
:1097880000F01DBE40F27232934200F00D8540F2A7
:10979800723293421FD840F25932934200F08984C2
:1097A80040F2593293420AD840F25732934200F0BD
:1097B8004A84B3F5567F00F0618400F000BE40F2A1
:1097C8006D32934200F0AC8440F26E32934200F066
:1097D800C18400F0F4BD40F28332934200F04D851D
:1097E800B3F5617F0AD240F27732934200F00085E8
:1097F800B3F55F7F00F0218500F0E1BD40F28932CA
:10980800934200F07A8540F28E32934200F09A85B6
:10981800B3F5617F00F04B8500F0D1BD089B0822AD
:109828001A71069A079B9A4206D3089B40F2123295
:109838001A60012300F0C7BD00BF059B002B05D0AF
:10984800089A0599069B0B4412791A70069B0133F6
:109858000693089B0B221A71069A079B9A4206D315
:10986800089B40F213321A60012300F0ACBD00BF20
:10987800059B002B05D0089A0599069B0B44127985
:109888001A70069B01330693089B099A127D1A7178
:10989800069A079B9A420BD3089B4FF445721A60AD
:1098A800012300F090BD00BF642F00204491030005
:1098B80000BF059B002B05D0089A0599069B0B4411
:1098C80012791A70069B01330693089B02221A71BB
:1098D800069A079B9A4206D3089B40F215321A60F3
:1098E800012300F070BD00BF059B002B05D0089A2E
:1098F8000599069B0B4412791A70069B013306934F
:10990800089B02221A71069A079B9A4206D3089B63
:1099180040F216321A60012300F055BD00BF059BC6
:10992800002B05D0089A0599069B0B4412791A70EA
:10993800069B01330693089B02221A71069A079B1D
:109948009A4206D3089B40F217321A60012300F0AE
:109958003ABD00BF059B002B05D0089A0599069BC8
:109968000B4412791A70069B01330693089B099AD7
:10997800527E1A71069A079B9A4206D3089B4FF4A7
:1099880046721A60012300F01EBD00BF059B002B24
:1099980005D0089A0599069B0B4412791A70069B04
:1099A80001330693089B00221A71069A079B9A4274
:1099B80006D3089B40F219321A60012300F003BD58
:1099C80000BF059B002B05D0089A0599069B0B4400
:1099D80012791A70069B01330693A34B00221A7062
:1099E80000F0E0BC089B09221A71069A079B9A426C
:1099F80006D3089B4FF448721A60012300F0E3BCB9
:109A080000BF059B002B05D0089A0599069B0B44BF
:109A180012791A70069B01330693089B04221A7167
:109A2800069A079B9A4206D3089B40F221321A6095
:109A3800012300F0C8BC00BF059B002B05D0089A85
:109A48000599069B0B4412791A70069B01330693FD
:109A5800854B1B7819460298FFF7DEF80246834BC0
:109A68001A60824B1B68089C1846FFF7FFF80346EC
:109A78002371069A079B9A4206D3089B40F2263226
:109A88001A60012300F09FBC00BF059B002B05D086
:109A9800089A0599069B0B4412791A70069B0133A4
:109AA8000693089B00221A71069A079B9A4206D3CE
:109AB800089B40F227321A60012300F084BC00BFE3
:109AC800059B002B05D0089A0599069B0B44127933
:109AD8001A70069B01330693644B1B68089C184652
:109AE800FFF7CBF803462371069A079B9A4206D3E1
:109AF800089B4FF44A721A60012300F064BC00BF4F
:109B0800059B002B05D0089A0599069B0B441279F2
:109B18001A70069B01330693099B1C7D534B1B68E7
:109B28001846FFF7A3F803469C4252D1089B02222D
:109B38001A71069A079B9A4206D3089B4FF44B72F8
:109B48001A60012300F03FBC00BF059B002B05D025
:109B5800089A0599069B0B4412791A70069B0133E3
:109B68000693089B02221A71069A079B9A4206D30B
:109B7800089B40F22D321A60012300F024BC00BF7C
:109B8800059B002B05D0089A0599069B0B44127972
:109B98001A70069B01330693089B099A527E1A7124
:109BA800069A079B9A4206D3089B40F22E321A6007
:109BB800012300F008BC00BF059B002B05D0089AC4
:109BC8000599069B0B4412791A70069B013306937C
:109BD80061E0099B9C7D254B1B681846FFF746F8FA
:109BE80003469C4252D1089B0A221A71069A079B87
:109BF8009A4205D3089B40F233321A600123E2E30C
:109C080000BF059B002B05D0089A0599069B0B44BD
:109C180012791A70069B01330693089B00221A7169
:109C2800069A079B9A4205D3089B4FF44D721A6017
:109C38000123C8E300BF059B002B05D0089A0599AE
:109C4800069B0B4412791A70069B01330693089BF6
:109C580000221A71069A079B9A4209D3089B40F280
:109C680035321A600123AEE3652F0020682F0020EB
:109C780000BF059B002B05D0089A0599069B0B444D
:109C880012791A70069B0133069304E09D4940F24D
:109C9800393002F065FD089B00221A71069A079B6D
:109CA8009A4205D3089B4FF44F721A6001238AE346
:109CB80000BF059B002B05D0089A0599069B0B440D
:109CC80012791A70069B01330693099B1C7D8E4BF3
:109CD8001B681846FEF7CAFF03469C4240F0F6810F
:109CE800089B05221A71069A079B9A4205D3089B7E
:109CF80040F241321A60012365E300BF059B002B47
:109D080005D0089A0599069B0B4412791A70069B90
:109D180001330693089B24221A71069A079B9A42DC
:109D280005D3089B40F242321A6001234BE300BF7F
:109D3800059B002B05D0089A0599069B0B441279C0
:109D48001A70069B01330693089B00221A71069A23
:109D5800079B9A4205D3089B40F243321A600123BD
:109D680031E300BF059B002B05D0089A0599069B97
:109D78000B4412791A70069B01330693089B102234
:109D88001A71069A079B9A4205D3089B4FF45172A1
:109D98001A60012317E300BF059B002B05D0089A22
:109DA8000599069B0B4412791A70069B013306939A
:109DB800089B01221A71069A079B9A4205D3089BB1
:109DC80040F245321A600123FDE200BF059B002BDB
:109DD80005D0089A0599069B0B4412791A70069BC0
:109DE80001330693089B05221A71069A079B9A422B
:109DF80005D3089B4FF452721A600123E3E200BFB7
:109E0800059B002B05D0089A0599069B0B441279EF
:109E18001A70069B01330693089B24221A71069A2E
:109E2800079B9A4205D3089B40F249321A600123E6
:109E3800C9E200BF059B002B05D0089A0599069B2F
:109E48000B4412791A70069B01330693089B012272
:109E58001A71069A079B9A4205D3089B40F24A3228
:109E68001A600123AFE200BF059B002B05D0089ABA
:109E78000599069B0B4412791A70069B01330693C9
:109E8800089B03221A71069A079B9A4205D3089BDE
:109E980040F24B321A60012395E200BF059B002B6C
:109EA80005D0089A0599069B0B4412791A70069BEF
:109EB80001330693089B099A927D1A71069A079BAB
:109EC8009A4205D3089B4FF453721A6001237AE231
:109ED80000BF059B002B05D0089A0599069B0B44EB
:109EE80012791A70069B01330693089B04221A7193
:109EF800069A079B9A4209D3089B40F24F321A6090
:109F0800012360E244910300682F002000BF059BF5
:109F1800002B05D0089A0599069B0B4412791A70F4
:109F2800069B01330693089B24221A71069A079B05
:109F38009A4205D3089B4FF454721A60012342E2F7
:109F480000BF059B002B05D0089A0599069B0B447A
:109F580012791A70069B01330693089B02221A7124
:109F6800069A079B9A4205D3089B40F251321A6021
:109F7800012328E200BF059B002B05D0089A05990C
:109F8800069B0B4412791A70069B01330693089BB3
:109F980002221A71069A079B9A4205D3089B40F23F
:109FA80052321A6001230EE200BF059B002B05D038
:109FB800089A0599069B0B4412791A70069B01337F
:109FC8000693089B05221A71069A079B9A4205D3A5
:109FD800089B40F255321A600123F4E100BF059B4B
:109FE800002B05D0089A0599069B0B4412791A7024
:109FF800069B01330693089B24221A71069A079B35
:10A008009A4205D3089B40F256321A600123DAE1DE
:10A0180000BF059B002B05D0089A0599069B0B44A9
:10A0280012791A70069B01330693089B06221A714F
:10A03800069A079B9A4205D3089B40F257321A604A
:10A048000123C0E100BF059B002B05D0089A0599A4
:10A05800069B0B4412791A70069B01330693089BE2
:10A06800099A127D1A71069A079B9A4205D3089B92
:10A078004FF456721A600123A5E100BF059B002B1F
:10A0880005D0089A0599069B0B4412791A70069B0D
:10A0980001330693089B099A927D1A71069A079BC9
:10A0A8009A4205D3089B40F259321A6001238AE18B
:10A0B80000BF059B002B05D0089A0599069B0B4409
:10A0C80012791A70069B013306930EE0099B9C7D5A
:10A0D800A34B1B681846FEF7C9FD03469C4204D0F3
:10A0E800A04940F2623002F03BFB9D4B1B681846CA
:10A0F800FEF7C3FD03461A469B4B1A709B4B002282
:10A108001A7042E1089B07221A71069A079B9A4225
:10A1180005D3089B40F26D321A60012353E100BF5A
:10A12800059B002B05D0089A0599069B0B441279CC
:10A138001A70069B01330693089B05221A71069A2A
:10A14800079B9A4205D3089B40F26E321A6001239E
:10A1580039E100BF059B002B05D0089A0599069B9D
:10A168000B4412791A70069B013306937C4B1A68CC
:10A178007E4B1B7819461046FEF786FD02467C4B3F
:10A188001A607B4B1B68089C1846FEF7A3FD034624
:10A198002371069A079B9A4205D3089B40F27232B4
:10A1A8001A6001230FE100BF059B002B05D0089A18
:10A1B8000599069B0B4412791A70069B0133069386
:10A1C800099B1C7D664B1B681846FEF74FFD03462E
:10A1D8009C421AD1089B03221A71069A079B9A423D
:10A1E80005D3089B40F277321A600123EBE000BFE9
:10A1F800059B002B05D0089A0599069B0B441279FC
:10A208001A70069B0133069329E0099B9C7D544BE9
:10A218001B681846FEF72AFD03469C421AD1089B84
:10A2280002221A71069A079B9A4205D3089B4FF49B
:10A238005F721A600123C6E000BF059B002B05D0A2
:10A24800089A0599069B0B4412791A70069B0133EC
:10A25800069304E043494FF4607002F081FA089BCA
:10A2680040221A71069A079B9A4205D3089B40F22E
:10A2780083321A600123A6E000BF059B002B05D09E
:10A28800089A0599069B0B4412791A70069B0133AC
:10A298000693089B00221A71069A079B9A4205D3D7
:10A2A800089B4FF461721A6001238CE000BF059B84
:10A2B800002B05D0089A0599069B0B4412791A7051
:10A2C800069B01330693099B1C7D254B1B6818468A
:10A2D800FEF7CCFC03469C421CD1099B1A6A089BDA
:10A2E80012781A71069A079B9A4205D3089B40F286
:10A2F80089321A60012366E000BF059B002B05D058
:10A30800089A0599069B0B4412791A70069B01332B
:10A31800069334E0099B9C7D114B1B681846FEF799
:10A32800A5FC03469C4225D1089B00221A71069A77
:10A33800079B9A4205D3089B40F28E321A6001238C
:10A3480041E000BF059B002B05D0089A0599069BA4
:10A358000B4412791A70069B013306930FE000BF75
:10A36800682F0020449103006C2F00206D2F0020DF
:10A37800702F0020154940F2923002F0F1F9144B89
:10A388001B780133DAB2124B1A70114B1A78114B41
:10A398001B789A42FFF4B6AE0F4B1B780133DAB242
:10A3A8000D4B1A700C4B1A780C4B1B789A42FFF421
:10A3B80019AB089B40F299321A60012303E0089B0D
:10A3C80000221A60002318460AB010BD4491030009
:10A3D8006D2F00206C2F0020652F0020642F002097
:10A3E80000B58FB00390029101920398FEF779FCB3
:10A3F8000D900398FEF78EFC0C900C9B9B8A03F043
:10A408000103002B14BF012300238DF82F309DF882
:10A418002F3083F00103DBB2002B01D0082327E0A3
:10A428000D98FEF7C1FC03468DF82E30019B03F012
:10A438003F03002B0ED1029B0893019B0993012334
:10A448000A9308AA9DF82E3011461846FEF7A0FA7E
:10A4580003460DE0029B0593019B06930023079397
:10A4680005AA9DF82E3011461846FEF791FA0346C4
:10A4780018460FB05DF804FB82B00190019B03F110
:10A48800804303F51C33184602B0704700B583B00B
:10A4980003468DF807309DF807301846FFF7ECFFA4
:10A4A800024601231360BFF36F8FBFF34F8F00BFC6
:10A4B80003B05DF804FB0000044B1B68082B0CBFBD
:10A4C80001230023DBB21846704700BF300100109B
:10A4D80008B5FFF7F1FF0346002B05D0054B1B68B5
:10A4E800002B01D0012300E0002303F00103DBB2BD
:10A4F800184608BD3401001008B5FFF7E9FF034608
:10A50800002B14BF01230023DBB283F00103DBB26D
:10A5180003F00103DBB2184608BD82B003468DF88C
:10A5280007309DF8073003F01F03DBB2184602B06E
:10A53800704782B003468DF807309DF807305B09F5
:10A5480003F00303DBB2184602B0704782B003463B
:10A558008DF807309DF80730DB09DBB2184602B0EA
:10A56800704782B00190019B1B7A184602B0704771
:10A5780082B00190019B1B68184602B0704700002A
:10A5880000B583B00190019B002B04D1064940F22D
:10A59800432002F0E5F80198FFF7EAFF03461B683D
:10A5A800184603B05DF804FBC891030082B001901F
:10A5B800019B1B78184602B07047000000B583B0B5
:10A5C80003468DF807300E4B1B789DF807209A42FA
:10A5D80011D00B4A9DF8073013709DF80730052BF2
:10A5E80006D0084B1B7823F00203DAB2054B1A7029
:10A5F8000548FDF7EFFC00BF03B05DF804FB00BFA2
:10A60800742F0020752F0020E8920300014B1B785F
:10A6180018467047742F00204FF08043D3F8383421
:10A6280003F00103002B14BF01230023DBB21846FB
:10A6380070470000024B00221A6000BF704700BF3D
:10A64800BC2F002000B585B003468DF807300B4BB2
:10A658001B680393039B002B0AD0FFF7EBFF074B04
:10A6680059689DF80720039B10469847034600E069
:10A678000E23184605B05DF804FB00BFBC2F002070
:10A68800044B1B68002B14BF01230023DBB21846C0
:10A69800704700BFBC2F002082B0034600918DF8A0
:10A6A80007300023184602B07047000010B58EB07E
:10A6B80003900291019201238DF83730029B099390
:10A6C800099B5B68002B15D1099B1B681846FFF78F
:10A6D80057FF0346002B0DD1099B9B68002B09D11E
:10A6E80000238DF83730039B00221A60039B002259
:10A6F8005A60AAE0019B402B04D956494FF4CB700D
:10A7080002F02EF800230C9300238DF82B3009F06B
:10A7180075FE0890099BDB68019A934228BF13468F
:10A728000B9386E0099B9B680B9A934228BF1346BC
:10A738000793099B5B68002B0CD0089A0C9BD018D8
:10A74800099B5B68079A19460DF0B7FA099B002226
:10A758005A6014E0099B9B68002B10D0099B1B686A
:10A768005B685C68099B03F11000099B1968089AEB
:10A778000C9B1A44079BA04701238DF82B30099B9B
:10A788009A68079BD21A099B9A60099BDA68079B0B
:10A79800D21A099BDA600B9A079BD31A0B930C9A6F
:10A7A800079B13440C93099B9B68002B0BD19DF8C6
:10A7B8002B30002B07D0099B1B681846FFF7E0FEDB
:10A7C8000246099B1A60099BDB68002B03D1002312
:10A7D8008DF837302DE0099B9B68002B29D1099B08
:10A7E8001B68002B0DD1099B00225A600C9B002B83
:10A7F80024D00C9A019B9A4220D200238DF837303E
:10A808001CE00023059304E0099B9B685A1C099BE4
:10A818009A60099B1B685B685C68099B196805A8B6
:10A8280001230022A0470346002BEDD1099B0022FB
:10A838001A610B9B002B7FF475AF00E000BF039BF0
:10A84800089A1A60039B0C9A5A609DF8373018468C
:10A858000EB010BD3492030000B587B00190019B83
:10A868005B781846FFF765FE0346002B01D00623E8
:10A878007BE0019B5B798DF81730FFF7C7FE034635
:10A888008DF81630019B9B78012B46D0032B25D0E1
:10A89800002B00D068E09DF81630052B05D09DF8F8
:10A8A800173003F00F03002B16D103AB184600F046
:10A8B80027FD04909DF81730184609F0EDFD034672
:10A8C8009AB2049B1A80019B01330222049918460C
:10A8D80000F0A4FC034648E0082346E09DF8173042
:10A8E80003F00F03072B3CDC019BB3F803309BB24A
:10A8F800002B36D19DF81630052B05D09DF8173062
:10A9080003F00F03002B06D19DF81730184609F005
:10A918008EFD002329E0082327E09DF8173003F077
:10A928000F03072B1FDC019BB3F803309BB2002BEE
:10A9380019D19DF81630052B05D09DF8173003F076
:10A948000F03002B0BD19DF81730184609F0B7FDFF
:10A958009DF81730184609F07CFD002305E0082310
:10A9680003E000BF00E000BF0623184607B05DF80B
:10A9780004FB00B58BB003900B4601928DF80B30A9
:10A98800019B5B781846FFF7D4FD0346002B01D0E6
:10A9980006236AE0FFF73AFE03468DF82730019B4D
:10A9A8005B781846FFF7D2FD0346012B3BD1019B8C
:10A9B8009B78002B02D00A2B17D055E09DF8273042
:10A9C800052B01D0082350E006AB184600F098FC90
:10A9D8000790079B00221A80019B013302220799E6
:10A9E800184600F01BFC03463FE09DF82730052B76
:10A9F80001D0082339E005AB184600F081FC089027
:10AA08009DF80B3019460398FEF756F803461A4688
:10AA1800089B1A70019B013301220899184600F01F
:10AA2800FDFB034621E0019B9B780B2B00D01BE02C
:10AA38009DF82730052B01D0082316E0019BB3F8B9
:10AA480003309BB2FF2B01D907230EE0019BDB7873
:10AA58008DF826309DF826209DF80B30194603986E
:10AA6800FDF7E2FF034600E0062318460BB05DF849
:10AA780004FB000000B585B00190009102AB1846B8
:10AA880000F03EFC0390029B012B04D818494FF4B8
:10AA9800257001F065FE0222002103980DF036F9B9
:10AAA800C02303F04003002B06D0039B1B7843F020
:10AAB8000103DAB2039B1A700E4B1B785B08DBB2FA
:10AAC80003F00103002B06D0039B1B7843F002031D
:10AAD800DAB2039B1A70009B0133022203991846CD
:10AAE80000F09CFB0346184605B05DF804FB00BF68
:10AAF80034920300752F002010B590B0019000919A
:10AB0800009B1B79022B18D0032B00F0C080012B6F
:10AB180002D000BF0623E7E0009BB3F807309BB2E2
:10AB2800002B01D10023DFE0009B01331222704982
:10AB3800184600F073FB0346D6E0009BB3F80730D5
:10AB48009BB2002B01D10023CEE0009BB3F8073065
:10AB58009BB2092B28BF09239BB2089309230F93A3
:10AB680000238DF83B30FDF747FE0D9037E00D9B35
:10AB78005B68002B04D15F4940F2C62001F0F0FD6C
:10AB88000D9B5B685B68002B04D15A4940F2C720D3
:10AB980001F0E6FD00230C930023049302E00C9BD4
:10ABA80001330C930D9B5B685C6804A801230022A9
:10ABB8000D99A0470346002BF1D10F9A0C9B134423
:10ABC8000F930D98FFF7CDFC03461A469DF83B30CE
:10ABD80013448DF83B300D98FFF7D2FC0D900D9B78
:10ABE800002BC4D106AB184600F08AFB0790069BE1
:10ABF800089A9A4204D93F494FF4377001F0B0FDE2
:10AC0800089A3D4907980DF058F8079B9DF83B2096
:10AC18001A710F9B9AB2079B5A80FDF7B5FD034640
:10AC2800002B06D0079BDB7943F02003DAB2079BA1
:10AC3800DA71FDF7E1FD0246304B1A602F4A079B97
:10AC480053602E4A089B9360009BB3F807309BB271
:10AC58001A462A4BDA6000238DF80F300DF10F03E6
:10AC6800184600F0E1FC26498020FDF7B7FE0B905E
:10AC78000B9B002B04D12349802000F023FB0B9071
:10AC88009DF80F30184600F0E5FC0B9B2CE0009B6C
:10AC9800B3F807309BB2002B01D1002324E0009BBE
:10ACA800DB788DF82B30009B5A799B791B02134374
:10ACB800ADF82830BDF828209DF82B3011461846ED
:10ACC80000F0D6FB0990099B002B01D106230BE06D
:10ACD800009B5C1C0998FFF769FC03461A46099912
:10ACE800204600F09BFA0346184610B010BD00BF7E
:10ACF8009492030034920300A8920300D02F0020FE
:10AD0800E0920300D892030000B587B0019000914B
:10AD180003AB184600F0F4FA0590FFF777FC0346FA
:10AD28008DF813309DF81330052B03D1059B0122B4
:10AD38001A7009E09DF81330042B03D1059B0022FB
:10AD48001A7001E0062307E0009B013301220599F0
:10AD5800184600F063FA0346184607B05DF804FB8E
:10AD680000B585B001900091FFF750FC03468DF8BF
:10AD78000F309DF80F30052B05D09DF80F30042BB0
:10AD880001D0082316E0009BDB78002B05D1FDF7E6
:10AD9800EBFE0420FFF712FC0BE0009BDB78012B95
:10ADA80005D1FDF7A9FE0520FFF708FC01E0072300
:10ADB80000E00023184605B05DF804FB00B583B039
:10ADC80001900091019B002B04D14F4940F25D3066
:10ADD80001F0C6FC009B002B04D14B4940F25E30C9
:10ADE80001F0BEFC009B5B781846FFF7A2FB034608
:10ADF800002B01D0062383E0009B5B781846FFF701
:10AE0800A5FB0346012B1CD1009B9B78062B0CD07D
:10AE1800082B10D0002B02D000BF062370E0009949
:10AE28000198FFF727FE03466AE000990198FFF7AB
:10AE380063FE034664E000990198FFF765FF034647
:10AE48005EE0009B9B78013B082B53D801A252F887
:10AE580023F000BFBFAE0200FDAE02008DAE0200BF
:10AE6800FDAE020081AE0200FDAE0200FDAE0200A2
:10AE7800FDAE0200F1AE0200234940F2813001F03C
:10AE88006FFC3CE0009BB3F803309BB2012B33D13D
:10AE9800FDF77AFC034683F00103DBB2002B01D0F7
:10AEA8000F232DE0194B1B7843F00203DAB2174B3E
:10AEB8001A70002324E0009BB3F803309BB2012BE7
:10AEC8001CD1FDF761FC034683F00103DBB2002BC4
:10AED80001D00F2314E00D4B1B7823F00203DAB2E4
:10AEE8000A4B1A7000230BE000990198FFF738FF0E
:10AEF800034605E000BF02E000BF00E000BF0623F4
:10AF0800184603B05DF804FB34920300752F002047
:10AF180000B58BB001900623099305238DF81030F6
:10AF280004AB0133184609F0D9FAFFF7A9FBFFF77C
:10AF380081FB9DF811301846FFF7EFFA0346032B03
:10AF480064D801A252F823F061AF02007FAF02007B
:10AF5800CFAF020009B0020004AB19460198FFF711
:10AF68002DFF0990099B062B52D104AB1846FDF71B
:10AF7800EFFC09904CE09DF815308DF822300DF16A
:10AF88000F029DF8223011461846FDF747FC07903E
:10AF9800079B002B02D1102309933BE09DF80F304B
:10AFA80004AA19460798FDF77DFC0990099B062B12
:10AFB80030D19DF80F3004AA19460798FFF7D9FC3D
:10AFC800099000BF26E0062309939DF815308DF8F7
:10AFD80023309DF8233003F00F03002B07D004AA79
:10AFE8009DF8233011461846FDF76CFC0990099B23
:10AFF800062B11D104AB1846FFF72EFC09900BE085
:10B0080004AB1846FDF7A4FC099006E000BF04E075
:10B0180000BF02E000BF00E000BF099B002B0FD17A
:10B02800FFF72EFB0346002B07D009F0ADFA0346C5
:10B03800002B07D109F07CFA04E009F099FA01E045
:10B0480009F09CFA099B18460BB05DF804FB00BF99
:10B0580000B585B00190009106230393009B1B78EF
:10B06800062B00F08780062B0BDC022B1BD0022B53
:10B0780002DC012B13D0B6E0032B17D0052B38D0F8
:10B08800B1E00D2B57D00D2B04DC0B2B36D00C2B3D
:10B0980041D0A8E00E2B5DD0852B1DD0A3E0032066
:10B0A800FFF78CFA9FE0002303939CE0504801F0DF
:10B0B8006CFD0346002B02D05C20FFF7E7F9FFF791
:10B0C800A5FA0346002B04D14A4940F2374001F063
:10B0D80047FB0023039386E0FFF798FA03468DF8B1
:10B0E8000B309DF80B30032B78D10420FFF766FA5C
:10B0F80074E00198FFF70CFF039074E0FFF786FAFD
:10B108000346002B04D03B4940F24B4001F028FB9A
:10B118000023039367E0FFF779FA0346012B04D075
:10B12800344940F2514001F01BFB0020FFF746FA7A
:10B138000023039357E0FFF76FFA0346002B03D071
:10B148000220FFF73BFA02E00120FFF737FA00235D
:10B15800039348E0FFF75AFA0346012B04D8254920
:10B1680040F2654001F0FCFA0120FFF727FA0023BE
:10B17800039338E0009BDB78032B31D0009B9B784E
:10B18800002B08D0009B9B78802B04D0194940F2F3
:10B19800744001F0E5FA009BDB781846FFF752FA95
:10B1A8000390039B002B16D1FFF76AFA0346002B86
:10B1B80006D0009B9B78002B14D109F0B9F911E057
:10B1C800FFF79AF9034683F00103DBB2002B09D09D
:10B1D80009F0CEF906E009F0D1F903E000BF02E07A
:10B1E80000BF00E000BF039B184605B05DF804FBF4
:10B1F800782F00203492030008B50020FDF7D0FA1C
:10B208008020FDF7CDFA00BF08BD08B50020FDF786
:10B21800E5FA8020FDF7E2FA00BF08BD00B58DB061
:10B22800039002910192039BDB889BB20A93019AD7
:10B238000A9B934228BF13460993019A0A9B9A4294
:10B248000ED2802008F0F8FE03461A46019BB3FB95
:10B25800F2F102FB01F29B1A002B01D1012300E05D
:10B2680000238DF823309DF8233003F001038DF877
:10B278002330029B0593099B06939DF8233007937F
:10B2880000238DF813300DF11303184600F0CCF9A4
:10B2980005AB19468020FDF77BFB0B900B9B002B21
:10B2A80004D10749802000F00DF80B909DF8133069
:10B2B800184600F0CFF90B9B18460DB05DF804FB5B
:10B2C800D892030000B583B0034600918DF807308B
:10B2D80009F05AF903461A469DF80730934201D0FF
:10B2E800102306E0054B009A92E8030083E8030068
:10B2F8000023184603B05DF804FB00BFBC2F0020F4
:10B3080082B00190019B002B02D0019B40221A6061
:10B31800014B184602B070477C2F002000B585B05D
:10B328000190002303930BE0019A039B13441978BF
:10B33800094A039B13440A461A70039B013303937B
:10B3480001980CF016FD0246039B9342ECD300BF14
:10B3580005B05DF804FB00BFE82F002000B589B0F8
:10B368004FF08053D3F8A8309BB26FEA83436FEA5B
:10B378009343ADF81E304FF08053D3F8A4300693B2
:10B38800BDF81E2002A8069B00931346054A0D210E
:10B398000CF047FC02AB1846FFF7C0FF00BF09B02E
:10B3A8005DF804FBEC92030000B587B003460A463B
:10B3B8008DF807301346ADF804309DF80720BDF826
:10B3C80004302949134451F823301B78002B09D144
:10B3D8009DF80720BDF804302349134451F8233061
:10B3E80002333DE00020FFF78BFF039000238DF828
:10B3F80017309DF80720BDF804301B49134451F855
:10B408002330049318E09DF817301E2B03D91749F1
:10B41800E62001F0A5F99DF8173001338DF81730B3
:10B42800049B19789DF817305B00039A13448AB27D
:10B438001A80049B01330493049B1B78002BE2D1F0
:10B448009DF8173001339BB25B009BB21BB2DBB295
:10B458001BB243F440731BB29AB2039B1A80039B3E
:10B46800184607B05DF804FBA82B00206093030082
:10B4780000B585B003460A468DF807301346ADF887
:10B4880004309DF80730002B05D100210020FFF77C
:10B498008BFF03462AE000238DF80F309DF8073014
:10B4A800052B01D9002321E09DF80730114AD35C10
:10B4B8008DF80E309DF80E30002B01D1002315E0D9
:10B4C8009DF80E209DF80F300B49134451F8233096
:10B4D800002B01D1002309E09DF80F309AB29DF8A6
:10B4E8000E3011461846FFF75FFF0346184605B0B1
:10B4F8005DF804FBF8920300A82B002082B00346F5
:10B508008DF807309DF90730002B0BDA0B4A9DF8B0
:10B51800073003F00F03043B13441B7EDBB25B09C7
:10B52800DBB208E0064A9DF90730134493F800336C
:10B53800DBB25B09DBB2184602B0704700ED00E0F1
:10B5480000E100E082B0EFF310830093009B0193C9
:10B5580072B6019B184602B0704762B600BF7047CA
:10B5680000B585B00190FFF7EDFF0390164B9B687F
:10B57800002B1BD1144B01229A60144BD3F8802066
:10B58800134B1340104A1360104B114AC3F8802024
:10B598000E4BD3F884300C4A53600C4B4FF0FF32FB
:10B5A800C3F88420019B00221A7002E0019B01224B
:10B5B8001A70039B002B01D1FFF7CFFF0023184619
:10B5C80005B05DF804FB00BFF82F002000E100E0A3
:10B5D800FC06FFBD00B585B003468DF80730104B5B
:10B5E8009B68002B16D09DF80730002B12D1FFF76F
:10B5F800A9FF03900B4A0A4B1B681360094A084BC2
:10B608005B685360064B00229A60039B002B01D1B4
:10B61800FFF7A3FF0023184605B05DF804FB00BF41
:10B62800F82F002000E100E000B583B0019000F0A1
:10B638002BF80346012B03D00549432001F090F86D
:10B648000198FFF78DFF00BF03B05DF804FB00BF52
:10B65800C893030000B583B003468DF8073000F0A7
:10B6680013F80346012B03D00649512001F078F85E
:10B678009DF807301846FFF7ADFF00BF03B05DF82F
:10B6880004FB00BFC893030084B0EFF30583019364
:10B69800019BC3F308030393039B002B0DD1EFF326
:10B6A80014830093009B0293029B03F00103002B79
:10B6B8000CBF01230023DBB200E00123184604B0CD
:10B6C800704700B585B0EFF305830193019BC3F381
:10B6D80008030393039B002B0AD0039B103B0293A0
:10B6E800029B5BB21846FFF709FF0346DBB200E096
:10B6F8000F23184605B05DF804FB82B00190019B4A
:10B7080003F00303002B0CBF01230023DBB2184610
:10B7180002B0704700B585B00190002303930EE096
:10B728000A4A039B52F82330002B05D0074A039B93
:10B7380052F8233001989847039B01330393039BE6
:10B74800032BEDD900BF05B05DF804FB10300020D5
:10B7580082B001900091019B1B78013B052B61D8B9
:10B7680001A252F823F000BF89B7020091B7020086
:10B77800B7B70200E9B7020009B8020025B802000D
:10B78800009B00221A704EE0009B01221A70019B58
:10B798001A89009B9A81019B9A88009BDA81019BF8
:10B7A800DA68009B9A60009B00221A743BE0009BB9
:10B7B80002221A70019B1A89009B9A81019B9A8820
:10B7C800009BDA81019BDA68009B9A60019B9B7D54
:10B7D800062B0CBF01230023DAB2009B1A7422E067
:10B7E800009B03221A70019BDA88009B9A81019BB7
:10B7F8001A89009BDA81019BDA68009B9A6012E043
:10B80800009B04221A70019BDA88009B9A81009B96
:10B818000022DA81009B00229A6004E0009B052246
:10B828001A7000E000BF00BF02B0704784B00190FA
:10B838000091019B0393039A009B9A4206D2039BB3
:10B848001B68B3F1FF3F01D0012300E0002303F0A0
:10B858000103DBB2184604B0704782B00190019B27
:10B868005B8803339B00019A1344184602B0704763
:10B8780000B583B0019000910198FFF7EEFF0246F2
:10B88800009B934201D202230CE0019B9B884FF658
:10B89800FF72934203D0019B1B88002B01D1012327
:10B8A80000E00023184603B05DF804FB00B583B040
:10B8B8000190019B002B13D00D4BDB681A46019BAE
:10B8C80093420DD30A4B1B691A46019B934207D832
:10B8D8000198FFF712FF0346002B01D0012300E077
:10B8E800002303F00103DBB2184603B05DF804FB44
:10B8F8008C2B002084B0019000910A23039300232D
:10B90800ADF80A3027E0BDF80A20174913469B0016
:10B9180013449B000B4404331B68009A9A4215D9C0
:10B92800BDF80A20104913469B0013449B000B44A2
:10B9380004331B6803F58053009A9A4206D2002309
:10B948000393019BBDF80A201A8008E0BDF80A306D
:10B958000133ADF80A30BDF80A30012BD3D9039B67
:10B96800184604B0704700BF3030002082B0019004
:10B978000091009B9B7D022B09D9019B1A89009B92
:10B98800DB8813449BB203339AB2019B1A81019B53
:10B998005A89009BDB88D31A9BB2033B9AB2019B5E
:10B9A8005A8100BF02B0704700B583B0074B1B68CF
:10B9B8001946002300930823054A064801F022FE91
:10B9C8000346184603B05DF804FB00BF583000205A
:10B9D800809403008C2B002000B585B00390039958
:10B9E800002300930823044A044801F00BFE034691
:10B9F800184605B05DF804FB889403008C2B0020E2
:10BA080000B585B003460091ADF80630BDF80620B4
:10BA1800234913469B0013449B000B4404331B68C3
:10BA280003F580530293009B1B680393039B002B31
:10BA380004D00398FFF711FF039024E0BDF8062017
:10BA4800174913469B0013449B000B4404331B689F
:10BA58000833039317E002990398FFF709FF034699
:10BA6800012B09D0022B0CD0002B00D00BE0009B3F
:10BA7800039A1A6001230EE00398FFF7EEFE039085
:10BA880001E0002307E002990398FFF7CFFE034681
:10BA9800002BE0D10023184605B05DF804FB00BF79
:10BAA8003030002000B585B001900091019B5B68A3
:10BAB8001846FFF7FBFE0346002B19D0019B1A8995
:10BAC800244B1B899A4213D1019B1A68019B5B681E
